:100000000C9434000C9449000C9449000C94490061
:100010000C9449000C9449000C9449000C9449003C
:100020000C9449000C9449000C9449000C9449002C
:100030000C9449000C9449000C9449000C9449001C
:100040000C9449000C9449000C9449000C9449000C
:100050000C9449000C9449000C9449000C944900FC
:100060000C9449000C94490011241FBECFEFD4E03A
:10007000DEBFCDBF11E0A0E0B1E0E8E7F2E002C0F2
:1000800005900D92A030B107D9F70E94C5000C94DD
:100090003A010C940000249A8CB580648CBD0895BC
:1000A0000DB407FEFDCF8EB50895CF92DF92EF928B
:1000B000FF920F931F93CF93DF936C017B018A0113
:1000C000E9010E945000F60180830E945000F70170
:1000D00080830E945000F80180830E945000888332
:1000E000DF91CF911F910F91FF90EF90DF90CF9014
:1000F0000895282F30E067FF09C06F57260F311D84
:100100002F3F310509F054F4860F08959FE7961BA1
:10011000291B310937FD04C0891B08958FEF08950D
:1001200080E00895FF920F931F93CF93DF93D62F14
:10013000142FC22F642F60958D2F0E947900082FF5
:10014000612F8D2F0E947900D82F6C2F802F0E9455
:100150007900F82E1C2F1095612F802F0E947900B6
:10016000082F6C2F8D2F0E947900C82F612F8D2FA3
:100170000E947900282F4C2F602F8F2DDF91CF9177
:100180001F910F91FF900C941F01CF93DF9300D02C
:1001900000D0CDB7DEB70E9429010E9415010E9450
:1001A0004B000E9450008A30E1F79E012D5F3F4FC7
:1001B000AE014C5F5F4FBE016F5F7F4FCE01029675
:1001C0000E94550029814A816B818C810E94920096
:1001D000E8CF84B5836084BD84B5806884BD84B570
:1001E000806284BD85B5836085BD0895A0E8B0E0D8
:1001F0008C9181608C93E1E8F0E08081886080835D
:100200008C9180688C938081836080830895E0EB7B
:10021000F0E0808183608083808180628083E1EB75
:10022000F0E080818360808308958AB188668AB90E
:10023000219A0E94E9000E94F6000C94070187BDF4
:1002400068BD50E050938900409388002093B4002B
:1002500008951092C5008CE08093C400E0ECF0E0BB
:1002600080818260808388E18093C10086E08093F2
:08027000C2000895F894FFCFCD
:00000001FF
