:100000000C9434000C943E000C943E000C943E0082
:100010000C943E000C943E000C943E000C943E0068
:100020000C943E000C943E000C943E000C943E0058
:100030000C943E000C943E000C943E000C943E0048
:100040000C943E000C943E000C943E000C943E0038
:100050000C943E000C943E000C943E000C943E0028
:100060000C943E000C943E0011241FBECFEFD4E050
:10007000DEBFCDBF0E9440000C9494000C940000A1
:100080000E9483000E946C002FEF4FEF6FE38FE31D
:100090000E947600F9CF84B5836084BD84B5806802
:1000A00084BD84B5806284BD85B5836085BD0895B7
:1000B000E0E8F0E0808181608083A1E8B0E08C918D
:1000C00088608C9380818068808380818062808357
:1000D0008C9183608C9308958AB180668AB984B1CB
:1000E000866084B90E944B000C94580087BD68BD9F
:1000F00050E0509389004093880030E030938B00AB
:1001000020938A0008951092C5008CE08093C4006B
:10011000E0ECF0E080818260808388E18093C10020
:0C01200086E08093C2000895F894FFCFA1
:00000001FF
