:100000000C9434000C9446000C9446000C9446006A
:100010000C9446000C9446000C9446000C94460048
:100020000C9446000C9446000C9446000C94460038
:100030000C9446000C9446000C9446000C94460028
:100040000C9446000C9446000C9446000C94460018
:100050000C9446000C9446000C9446000C94460008
:100060000C9446000C94460011241FBECFEFD4E040
:10007000DEBFCDBF21E0A0E0B1E001C01D92A43001
:10008000B207E1F70E9496000C94D8000C9400008F
:10009000ACE7B0E08C9180648C93EAE7F0E080817B
:1000A000846080838C9180628C938081806880835F
:1000B000089590917C00907F90937C0090917C00BB
:1000C000892B80937C0080917A00806480937A00F1
:1000D00080917A0086FDFCCF8091790008951F936E
:1000E000CF93DF93EC01862F142F0E945900888351
:1000F000812F0E9459008983DF91CF911F9108952C
:10010000229A2A9A239A2C9A259A8CB583608CBDC0
:100110008CB580618CBD8CB580648CBD08952D98A4
:100120008EBD0DB407FEFDCF2D9A08950E944800A4
:100130000E94800041E060E082E091E00E946F0058
:1001400043E062E080E091E00E946F008AE00E945C
:100150008F0089EF90E00197F1F700C000008091D7
:1001600002010E948F0089EF90E00197F1F700C033
:100170000000809103010E948F0089EF90E00197B9
:10018000F1F700C00000809100010E948F0089EF0C
:1001900090E00197F1F700C00000809101010E94FA
:1001A0008F0089EF90E00197F1F700C00000C2CF07
:0401B000F894FFCFF1
:00000001FF
