:100000000C9434000C9451000C9451000C94510049
:100010000C9451000C9451000C9451000C9451001C
:100020000C9451000C9451000C9451000C9451000C
:100030000C9451000C9451000C9451000C945100FC
:100040000C9451000C9451000C9451000C945100EC
:100050000C9451000C9451000C9451000C945100DC
:100060000C9451000C94510011241FBECFEFD4E02A
:10007000DEBFCDBF11E0A0E0B1E0E6E1F2E002C0FA
:1000800005900D92A031B107D9F721E0A0E1B1E0D0
:1000900001C01D92A431B207E1F70E948B000C94BD
:1000A00009010C940000ACE7B0E08C9180648C9363
:1000B000EAE7F0E08081846080838C9180628C9399
:1000C000808180688083089590917C00907F9093D8
:1000D0007C0090917C00892B80937C0080917A0039
:1000E000806480937A0080917A0086FDFCCF8091B5
:1000F000790008951F93CF93DF93EC01862F142F7F
:100100000E9464008883812F0E9464008983DF91AC
:10011000CF911F9108950E94B9000E94530041E0C1
:1001200060E082E191E00E947A0043E062E080E1D9
:1001300091E00E947A0080E091E00E94D1008091DD
:1001400012010E94E40087E091E00E94D1008091BA
:1001500010010E94E40085E091E00E94D1002FE3AD
:100160008DE093E0215080409040E1F700C0000016
:10017000D6CF1092C5008CE08093C400E0ECF0E094
:1001800080818260808388E18093C10086E08093D3
:10019000C20008959091C00095FFFCCF8093C600E7
:1001A00008950F931F93CF938C01C0E0F801EC0FDB
:1001B000F11D8081882321F00E94CA00CF5FF6CF15
:1001C000CF911F910F910895CF93C82F64E60E949D
:1001D000FD00805D0E94CA002AE08C2F622F0E94E1
:1001E000FD00C92F0E94FD0080E3890F0E94CA0014
:1001F00080E38C0FCF910C94CA00991B79E004C066
:10020000991F961708F0961B881F7A95C9F7809555
:060210000895F894FFCFF1
:100216004A4F59413A20002C204A4F59423A200071
:00000001FF
